S010000046696E63684269742E737265630D
S1130000B0060020ED290000E9290000E9290000DC
S113001000000000000000000000000000000000DC
S1130020000000000000000000000000E9290000BA
S11300300000000000000000E9290000E929000098
S1130040E9290000E9290000E9290000E929000064
S1130050A1150000E9290000E929000000000000C2
S1130060E92900002515000035150000451500009C
S1130070F50A00009D0E0000AD0E0000ED0000002A
S1130080E9290000E9290000E929000010B5064C1F
S11300902378002B07D1054B002B02D0044800E045
S11300A000BF0123237010BD0C00002000000000DD
S11300B0702D0000084B10B5002B03D007490848E9
S11300C000E000BF07480368002B00D110BD064BB9
S11300D0002BFBD09847F9E7000000001000002037
S11300E0702D0000702D00000000000070B52E4B34
S11300F01C6823681D7EEDB2EA0705D5E27ED207AF
S113010002D5A27ED20716D46B0708D50423226831
S11301101376E37E9B0702D5A37E9B073CD4AB07F3
S113012008D5022322681376E37E5B0702D5A37EFB
S11301305B0735D470BD01221A762268537E5BB208
S1130140002BFBDB61698B1C6361538B9BB20B80BF
S1130150238B013B9BB22383002B11D0637F002BA5
S1130160D2D02268537E5BB2002BFBDB137B0221CF
S11301700B4313732268537E5BB2002BFBDBC3E794
S1130180237F052BC0D10023237701332268937585
S11301902000A3689847B7E72000E3689847BEE7C4
S11301A0236920009847C5E7C8000020044A137853
S11301B002210B43137053785BB2002BFBDB7047B7
S11301C00018004000B583B0124A936940210B43E4
S11301D0936101A900230B7005200F4B984705205C
S11301E00E4B98470E4A137801210B431370537832
S11301F05BB2002BFBDB0B4B19004031002204C324
S11302009942FCD11022084B1A60084B984703B05E
S113021000BDC046000400404D280000C127000076
S113022000180040CC00002000E100E0AD01000017
S1130230002303604360012202724272837202331C
S1130240C3727047F0B583B005000C0001A9002308
S11302504B70CB7023790B70237A8B702078154BFD
S1130260984700201F2D00D8134807222A409200E7
S1130270E77AA37A002B01D008231F43EB089B00E5
S1130280C31899690F269640B14397403A000A4330
S11302909A61637A002B06D143690122AA409343F1
S11302A0436103B0F0BD42690123AB401343436192
S11302B0F7E7C0464529000000180040F0B5DE46C7
S11302C057464E464546E0B587B080460491160031
S11302D01F000022002300218B463F24012021001F
S11302E0009601975C4603944446059413E0202449
S11302F0641A0500E540A84614E0009C019D121B09
S1130300AB415C464D462C43A346039C45462C43D7
S11303100394013925D3202464420C19E7D4050041
S1130320A540A84604008C40A14692185B411400E5
S11303301D00059E4F463E40B446049E47463E403F
S1130340B246664657463E4303D006002643320073
S11303502B00009C019D9D42DBD8CED19442D8D87D
S1130360CBE7039B5846190007B03CBC904699461E
S1130370A246AB46F0BD10B5490840230024814293
S113038002D2180010BD1C00091A631C9BB28842DB
S1130390F9D94023FF2CF4D814800023F1E700009E
S11303A0F0B583B00F00160008AA117804004C437E
S11303B04022BC4202D9100003B0F0BD002B14D17E
S11303C0020008000021194CA04701003A00002354
S11303D00020174CA04700220123121A8B41120C53
S11303E01B041A4332800022E5E70022012BF9D1D5
S11303F00A00002300210D4CA04702000B000092CC
S11304000193380000210A4CA047050080239B017A
S113041040229842CFD8790FF800009A019BA04758
S1130420EA00821AD2B252032A43DBE7292C0000E5
S1130430BD02000010B582B004000E4B1B78002BE7
S113044007D0002905D10B4B5B78834210D01D20C7
S11304500CE001A90C700D20074B98470D20074BA9
S11304609847044B5C7001221A70002002B010BD42
S11304700020FBE7280000204D280000C1270000D1
S1130480204B984217D0204B984224D01F4B9842BF
S113049001D000207047012907D000292BD0022960
S11304A005D0032905D00020F4E71948F2E71948DC
S11304B0F0E71948EEE7012907D000291DD00229E9
S11304C005D0032905D00020E4E71448E2E71448E6
S11304D0E0E71448DEE7012907D000290FD00229FC
S11304E005D0032905D00020D4E70F48D2E70F48F0
S11304F0D0E70F48CEE70F48CCE70F48CAE70F48CC
S1130500C8E7C046000C0042001000420008004248
S113051003000500030006000300070002001700A3
S113052003001E0003001F00030017000300100057
S11305300300190003000400020016000300160063
S113054030B585B001AA0B4B32CB32C20300019AFD
S113055082420CD0029A824207D00020039A9A4227
S113056001D005B030BD023002E0012000E00020DF
S1130570C0B2F6E7C42C00000020704730B5040078
S11305801720032900D930BD114DAA42FBD8206899
S1130590002B10D0802464028C40036B1C42FCD1DD
S11305A0802424038C4083681C42FCD11C318900C4
S11305B00A500020E7E7802464008C4083681C42D2
S11305C0FCD11031890041184A600020DBE7C046A5
S11305D0FFFFFF00002303604C4A42608372C37232
S11305E0037343720372C3610362436283620375DC
S11305F043758375C37503764376037443748374B8
S1130600C3742C2283540132835401328354013243
S113061083540132835401328354013283540132AE
S1130620835401328354013283540132835401329E
S1130630835401328354013283540132835401328E
S1130640835401328354013283540132835401327E
S1130650835401328354013283540132835401326E
S1130660835401328354013283540132835401325E
S1130670835401328354013283540132835401324E
S1130680835401328354013283540132835401323E
S1130690835401328354013283540132835401322E
S11306A0835401328354013283540132835401321E
S11306B08354413283548365836701328354C36511
S11306C0C3670132835403661A3A83501B3283543E
S11306D04366173A8350183283548366143A83501E
S11306E015328354C366113A83501232835403671C
S11306F00E3A83500F32835443670B3A83500121DF
S11307000C328154013283547047C046FFFFFF000E
S1130710F0B5DE4657464E464546E0B58DB0060078
S11307200C0015000800CD4B98470300CC490A6A19
S1130730202002430A6222680438920706D50DB0CD
S11307403CBC90469946A246AB46F0BD22680127C0
S11307501740F4D1C34A053829689142EFD8696833
S11307609142ECD8E969914200D98BE1296A91421E
S113077000D989E1696A914200D987E1A96A914265
S113078000D985E12A7C013A504250410206019287
S11307906A7C012A31D0AA7C012A34D0EA7C012A5D
S11307A037D0A122AA5C002A04D080221201019928
S11307B0114301912A7A511E8A41920003926A7A66
S11307C0012A2CD03522AA5C032A00D962E12C210B
S11307D0695C0F2900D95DE1287B0490E87A0590D3
S11307E02D208246AA4400200297844606960E00D5
S11307F0A0465446A946079347E0802292040199F3
S113080011430191C7E78022D20401991143019158
S1130810C4E780221205019911430191C1E70399AC
S113082011430391CEE79202C0252D012A403243A1
S11308300D7903262E40324355462A434E797601DC
S1130840602535402A438D792D02C026B6003540F7
S11308502A43CD792D03E026F60135402A4310437F
S113086003431F4308AB624608201B189F50042A09
S113087028D08A7C032A00D90CE14E7A0A34042356
S11308809A46D4440F2E00D904E13606F0231B0502
S11308901E40210025782D04FF231B041D40AA4679
S11308A063788020002B00D102988F780823002FD2
S11308B000D1029BCF78BB4610275D46002DB2D1F4
S11308C0029FB0E7069E44464D46079B484650307B
S11308D049464131002280277F02BC460127B946A0
S11308E00227FF37BA461F001300A0463C0007E06A
S11308F0574697403B43013201300231082A0ED05B
S11309000778002F02D0674697403B430F78002FAB
S1130910F1D0022FECD04F4697403B43EBE7220047
S11309204446984613006A7E120130211140287E05
S11309300722024011430022802040020F0002E0FF
S11309400132042A07D0A918097D0029F8D0010032
S113095091400F43F4E7B946321D30003430002192
S113096002C29042FCD100227263B2639B003E4AF1
S11309709E503460A023EA5C643BF25409A9AB7A2C
S11309800B701120394B98471120394B98472F0091
S113099098372E00583678239A46AA44773B9B46CC
S11309A0230054469A4603E001370436B44214D077
S11309B03B78002BF8D008AB5A469A70002308AA5B
S11309C0D37013002022B21812781A705A465A7043
S11309D030781900274B9847E6E75446049B1B03DD
S11309E0059A12021343019A134323600422A36855
S11309F01A42FCD1FF2323710422A3681A42FCD1BA
S1130A006B461B7B63710A9BE3600B9B236143462C
S1130A10A361194AA3681342FCD14B46E363102235
S1130A20A3681A42FCD12B686363144AA368134277
S1130A30FCD16B6823641C350021114802008A40F4
S1130A40A3681A42FCD104CD0B0010339B00E318B9
S1130A505A6001310429F1D1002070E679050000C3
S1130A6000040040FFFFFF000C0100204D2800009F
S1130A70C127000045290000400002008000040056
S1130A800001080017205AE6172058E6172056E6FA
S1130A90172054E6172052E610B53C23C35C014CE2
S1130AA0A04710BD7D050000F0B5C64600B5800026
S1130AB00E4BC7583B68DE6ABB6B7A6B13401E4013
S1130AC000240B4B984602E00434302C0AD04346F1
S1130AD0E5583542F8D03B195B68380098473B68C5
S1130AE0DD62F1E704BC9046F0BDC0460C01002075
S1130AF0D02C000010B50020014B984710BDC04613
S1130B00A90A0000064B984208D0064A00239042E6
S1130B1001D0180070470133DBB2FAE70023FBE78A
S1130B2000180042001C0042F0B585B004000D001E
S1130B3016000800824B9847070003AB12221A7074
S1130B405A7002AB2E321A8040325A800023A360BE
S1130B50E36023616361237663768200794BD4502A
S1130B602560B378082B06D023712B880520DB077A
S1130B7005D505B0F0BD1720FA07FAD4F4E7EB7BEE
S1130B801730DB06F5D42B889B07F2D4337C002B7B
S1130B9000D07AE0337F002B00D082E06A49086AF3
S1130BA07A0002ABD35A03430B62B378082B00D10B
S1130BB087E033786A46137003ABDF5D694638001B
S1130BC0624B98473800624B98473189B3880B438E
S1130BD0B178B279114319437378002B02D0802382
S1130BE01B0119432268D37B5BB2002BFBDB2980FA
S1130BF0717B4B1E99418900B37B002B01D00123EB
S1130C0019432268D37B5BB2002BFBDBFF232B71E0
S1130C10002905D02268D37B5BB2002BFBDB697112
S1130C20B17AF37A002B01D010231943337B002BC4
S1130C3001D0202319432268D37B5BB2002BFBDB5A
S1130C40A9712268D37B5BB2002BFBDB2379042BD5
S1130C503FD0082B5ED01720002B00D089E7D37B30
S1130C605BB2002BFBDB338D2B822268D37B5BB220
S1130C70002BFBDB738D2B832268D37B5BB2002BB1
S1130C80FBDBB38D6B83002073E701A901238B7019
S1130C900022CA70327E0A704B70307D2D4B98470B
S1130CA078E701A901238B700022CA702432B2189C
S1130CB012780A704B701F33F3181878254B984735
S1130CC06CE7086A7A1C520002ABD35A03430B62E6
S1130CD06FE7D37B5BB2002BFBDB2823F35C2B7425
S1130CE02268D37B5BB2002BFBDB2923F35C2B75DF
S1130CF02268D37B5BB2002BFBDB2A23F35C2B76CD
S1130D002268D37B5BB2002BFBDB2B23F35C6B767B
S1130D1000202EE7D37B5BB2002BFBDBB36A2B6195
S1130D202268D37B5BB2002BFBDBF36AAB612268E6
S1130D30D37B5BB2002BFBDB336BEB61002018E74A
S1130D40050B000010010020000400404D280000A5
S1130D50C1270000452900000268D37B5BB2002B49
S1130D60FBDB0379042B05D0082B0BD01720002BB9
S1130D7004D07047C9B211740020FAE789B2118215
S1130D800020F6E711610020F3E70268D37B5BB231
S1130D90002BFBDB0379042B05D0082B09D00020A2
S1130DA0002B03D07047107CC0B2FBE7108A80B2DE
S1130DB0F8E71069F6E710B50468E37B5BB2002B33
S1130DC0FBDB0379042B05D0082B14D01720002B50
S1130DD008D010BD17200129FBD8D2B261180A76B9
S1130DE00020F6E717200129F3D892B20C3149000C
S1130DF00A530020EDE717200129EAD806318900BB
S1130E000A510020E5E7931C9B001950022A09D0DF
S1130E10032A0CD0012393401A00037E1343037664
S1130E2000207047037E102213430376F8E7037E05
S1130E30202213430376F3E770B58000164BC458A1
S1130E4023689D7B227E637E13401D40EB0706D4FE
S1130E50AB070BD4EB0610D4AB0615D470BD200041
S1130E60A3689847012322689373F1E72000E3689D
S1130E709847022322689373ECE72000236998477C
S1130E80102322689373E7E7200063699847236877
S1130E9020229A73E2E7C0461001002010B500201A
S1130EA0014B984710BDC046390E000010B5012013
S1130EB0014B984710BDC046390E0000F0B5DE4620
S1130EC057464E464546E0B591B005000C00160065
S1130ED029600800BC4B9847020023680520DB0703
S1130EE006D511B03CBC90469946A246AB46F0BD2F
S1130EF0236817309B07F4D4B449086A971C01236C
S1130F00BB4003430B620FA92D27F35D0B700E3218
S1130F10D3B202931800AE4B98470298AD4B984752
S1130F20F05D0021AC4B9847F37A6B712423F35C9A
S1130F30AB712523F35CEB71F37E2B72337F6B7201
S1130F402B6898461800A04B98470E3000220E23B9
S1130F5006A98C4663441A80328A02928023DB01FC
S1130F609A4200D19EE00FD9C023DB01029A9A4233
S1130F7000D192E080231B029A4200D01FE1032398
S1130F8006930023079308E080239B019A4200D034
S1130F9015E1102306930F3B079333680593F36819
S1130FA0039373690493337E9B462623F35C9A462A
S1130FB073689946002B00D1A0E080235B05994516
S1130FC000D184E0737E002B02D0B37E424693733B
S1130FD02A68029FD369002BFCD10E3306AA9446DB
S1130FE063441B8842469381059B039A1343049AE6
S1130FF013434A4613431F435B461B021F43534696
S11310005B071F432723F35C002B01D104331F43E9
S1131010737E9B02327F52021343727F1202134388
S11310202422B25C520413432522B25C12041343FB
S1131030B17AF27A114319433389FF2B00D181E04D
S113104080225204174319432C23F35C002B03D151
S1131050624B9B789B0701D580231F432A68D36981
S1131060002BFCD1434659602A68D369002BFCD17C
S113107043461F600EAB80221A7000225A70DA7049
S11310809A70336B0A93736B0B93B36B0C93F36B80
S113109002930D9300270AAE63E008230693073BEF
S11310A007937AE733680593F368039373690493AA
S11310B0337E9B462623F35C9A4673689946002B3D
S11310C018D080235B05994501D0002025E0272313
S11310D0F35C002B00D075E7336A1F00C0B2404BAD
S11310E0984701000E2206AB9C46624438003D4BF3
S11310F0984712E008230693002307932723F35C01
S1131100002B0ED0069B0093079B0E2206A98C464B
S11311106244B16A306A344FB847002800D0E0E630
S113112050E7336A1F00C0B22D4B98470100069B5D
S11311300093079B0E2206A88446624438002A4F77
S1131140B847EAE7F37E002B00D17DE78023DB0478
S11311501F4379E72000254B984707E00137042F08
S11311600DD0F9B2BB0098590028F3D0431CF5D038
S11311700EA90870000CC0B21D4B9847EEE700237F
S1131180EB602B616B61AB61EB612B62AB626B62F9
S11311900022EB85AB853033EA540133EA54013342
S11311A0EA540133EA542868074B9847040011496C
S11311B0114B9847A400114BE550002091E61023F1
S11311C0069300230793E8E641050000000400406D
S11311D04D280000C1270000350400000020004114
S11311E06928000077030000A103000081040000C7
S11311F04529000075130000C914000018010020DF
S1131200C2791C23002A01D118007047C28D92B202
S1131210173B002AF8D10368DA69002AFCD1198542
S113122002211A7E0A42FCD00023EDE7F0B5CE4637
S1131230474680B583B0050001911720002A04D1E8
S113124003B00CBC90469946F0BDEB790530002BF9
S1131250F6D02C68E369002BFCD1013A93B299468D
S1131260002601271F4B984611E0731C9BB2019A7C
S1131270915D6A79012A17D089B21E0028001A4BA1
S113128098474B46013B9BB29946434513D0237E76
S11312903B42EAD1134B227E3A42E6D1012B19D0CC
S11312A0013B002BF7D1E0E70236B6B2019AD35CDA
S11312B01B021943E2E7237E9B070DD4094B02214D
S11312C0227E0A420AD1012B0AD0013B002BF7D11E
S11312D00020B5E71220B3E70020B1E70020AFE714
S11312E01220ADE7FFFF000001120000F8B5040072
S11312F00D00160007680F4B9847A38D9BB2002B77
S113130003D00D4B98470520F8BDA6850A4B984796
S1131310656205223223E2542E3BBB75237A002BEF
S113132001D02023BB75637A0020002BECD0082366
S1131330BB75E9E799230000D9230000931C9B00A7
S1131340C31859603021012393401A00435C1343AE
S11313504354704710B51723002A01D1180010BD5B
S113136084790533002CF9D0014B98470300F5E745
S1131370ED120000F8B58000514BC6583468E3699B
S1131380002BFCD1237EA57D1D403023F35C31224C
S1131390B75C1F40EB0722D5F38D9BB2002B1CD00A
S11313A0B26A1378DBB2511CB162717901290ED093
S11313B09BB2DB05DB0D2385F38D013B9BB2F385EB
S11313C0002B0CD1013323750133A37507E0517849
S11313D009020B430232B262EBE701232375AB0728
S11313E006D50223237500223133F254FB0728D497
S11313F06B0710D5638BDBB21A0726D43F22134048
S1131400002B4AD09A0723D51A223223F254303BB8
S113141063837B073DD4EB0604D510232375237621
S1131420FB0640D4AB0604D52023237523763B0763
S11314303DD42B0704D5082323752376BB063AD461
S1131440F8BD3000F3689847D2E737221340D7E756
S11314505A0705D51E223223F2542E3B6383D8E764
S1131460DA0705D513223223F254313B6383D0E7E4
S1131470DA0605D542223223F254223B6383C8E7BD
S113148020221A42C5D021323223F254123B638304
S1131490BFE7300073699847BDE7BB07BBD5300091
S11314A033699847B7E73000F3699847BAE73000E3
S11314B0B3699847BDE7336A30009847C0E7C04630
S11314C0180100207047000030B50A4B1B78002B30
S11314D00CD1094C094D2560094B00221A60656046
S11314E05A60A5609A600132024B1A708000024B68
S11314F0C15030BD2A0000202C000020C51400007B
S11315001801002010B582B001AC09232370013307
S113151063700133A370024B9847205602B010BD8C
S11315204105000010B5024B1B680020984710BD10
S11315302C00002010B5024B5B680120984710BDB9
S11315402C00002010B5024B9B680220984710BD68
S11315502C0000201723002A01D0180070478B00AC
S1131560064A9B58002B03D0834205D01D23F4E781
S1131570890088500023F0E70023EEE7CC00002028
S11315801723002901D01800704700221F2800D813
S1131590024A01238340D3600023F4E7001800408B
S11315A070B50022104B1A70002310491F25104EED
S11315B00D4C0AE00D4908E023780133DBB22370B7
S11315C00F2B10D800211F2BF4D92800184001221A
S11315D0824008691042EFD00A619B009B59002B9E
S11315E0EAD09847E8E770BD2401002000180040C5
S11315F0CC00002070B50020084B98470500084C2B
S1131600FA218900A047074B186007492800A04722
S1131610064B18600522064B1A6070BD3527000082
S1131620112B00000000002040420F0004000020A5
S113163010E000E030B5084B1C68084A0025802102
S11316404902013807D3002CFBD05460956013681D
S11316500B42FCD0F5E730BD0400002010E000E0B0
S113166000B583B001AB80221A700A785A704A78A8
S11316709A708A78DA701900014B984703B000BD5C
S11316804529000070B5AAB0184E01AC3100200005
S1131690174B98470623E372F9336360FD3B2376C7
S11316A00023A375E375636201229A216254903981
S11316B02166104876316050A3629F33E2548E3B1A
S11316C063670D4A8333E2500C4D22003100280039
S11316D00B4B98472A68022193681942FCD113687E
S11316E002210B4313602AB070BDC04600140042AF
S11316F0D505000005000A00050011004000002087
S11317001107000030B583B0C943CDB2012318409E
S113171044424441E4B2264B1B78A34225D0012322
S1131720244A13706A46137001AA93700021D17081
S11317305370002824D01100043313700A201E4B68
S1131740984769460B201D4B9847802212011C4B79
S11317509A612A0002211B481B4B984702221B4B0B
S11317601A70134B1C7003B030BD124B1B78002B46
S1131770D5D0164B19782A001248134B9847F0E736
S113178001A905230B700B200B4B984769460A20CF
S11317900A4B98478022D200094B9A612A00032100
S11317A00848094B98470322084B1A70D9E7C046EA
S11317B03A0000203900002045290000611600008D
S11317C00044004140000020990A00003C00002031
S11317D030B583B0C943CDB20123184044424441DB
S11317E0E4B2264B1B78A34225D00122244B1A7065
S11317F06B461A7001AB002159709A70D970002899
S113180024D0190005230B7011201E4B98476946FC
S113181010201D4B9847802252021C4B9A612A00CB
S113182003211B481B4B984703221B4B1A70134B75
S11318301C7003B030BD124B1B78002BD5D0164B57
S113184019782A001248134B9847F0E701A9052399
S11318500B7010200B4B9847694611200A4B984790
S113186080229202094B9A612A0002210848094BFE
S113187098470222084B1A70D9E7C0463B00002063
S11318803800002045290000611600000044004192
S113189040000020990A00003D00002010B5014BD3
S11318A0984710BD8516000000B583B001A9012337
S11318B04B7000228A700B700920024B984703B0CA
S11318C000BDC0466116000010B5034B9847802246
S11318D09200024B9A6110BDA91800000044004117
S11318E0F0B5DE4657464646C0B582B001904F4B30
S11318F01B78002B00D091E04D490B785A1CD2B2D2
S11319000A704C49C95CC8090023002804D14B095A
S1131910DB014948844663441F200840012181407B
S11319205961464B1E78464B1B78013B98469E42B4
S11319306EDA4448815D444B19700136F6B23F4B70
S11319401E703300855D41480570A94235D1B0450C
S113195052DB100037498B461F218A460127394C38
S1131960B61A0FE0554629403D008D404561E15CC3
S11319709319DBB20093E05C8446814212D11000DB
S113198098452CDB421CD2B25946095CC8098446EE
S113199000206546002DE5D14809C001264DAC461E
S11319A06044DFE70500284B1970244B6846007833
S11319B01870264B1D701E4B1A70FF2D1ED0019CF3
S11319C02000234B9847214B1A7800212000214BFB
S11319D0984702B01CBC90469A46A346F0BD6546A3
S11319E0194B1970154B684600781870174B19700D
S11319F00F4B1A706146E0E70D00DEE7019C200002
S1131A00134B9847002200212000124B9847E0E72F
S1131A100022002101980F4B9847DAE70022034B7C
S1131A201A70002101980B4B9847D2E70900002057
S1131A304F010020440100200044004157010020D0
S1131A40080000204C0100208100002080000020BC
S1131A50590D0000B70D0000044B054A11781970A8
S1131A605178597092789A707047C04648010020A6
S1131A7054010020F8B5184B984700220023174D55
S1131A802F00174E04E00133DBB21A00012B0BDCEC
S1131A90A85C511C6C5CA042F5D9BC547854B05C71
S1131AA0745CB4547054EEE7002200230B4D2F00F5
S1131AB00B4E03E00133DBB21A1E0BDCA85C511C95
S1131AC06C5CA042F6D9BC547854B05C745CB454D9
S1131AD07054EFE7F8BDC046591A000048010020D1
S1131AE050010020F0B500220D4B1A700023002095
S1131AF00C4D0D4F0D4E0E4C05E0F954E15CF154C4
S1131B000133032B06D0E95CFF29F6D00132D2B2AF
S1131B100120F2E7002800D1F0BD014B1A70FBE769
S1131B2008000020480100204C010020440100204E
S1131B305001002070B504001A4A1B4B9A611B4BDC
S1131B401B78002B10D10023194A1370194A137003
S1131B50194B1A78FF2A20D1184B10211A681173D7
S1131B605A7E8A435A7670BD144D2868144B9847A0
S1131B70144B1B5C1F221A4001239340124A13602A
S1131B806B7E102213436B762B6810225A730F4B13
S1131B9098470022054B1A70D5E7002120000C4B12
S1131BA09847E0E7000100C00044004182000020A3
S1131BB0570100204F0100204C0100202801002083
S1131BC0050B0000002D000000E100E0E51A000014
S1131BD0B70D000010B58EB001AA002300211370C8
S1131BE093711381002050709172D17211739173AB
S1131BF051731174536193611177136253621385A6
S1131C0053859385C023DB00938004239370FF21C5
S1131C102533D154074C08492000084B98472268C3
S1131C20D37B5BB2002BFBDB138802210B431380B5
S1131C300EB010BD2801002000180042290B00003E
S1131C4010B5012202490348034B984710BDC04612
S1131C50000100C0004400417529000030B583B084
S1131C6001AC012363700022A270237021001E20A6
S1131C70074DA84721000820A84721001F20A84796
S1131C80044B9847044A054B9A6103B030BDC046E3
S1131C9061160000411C0000000100C00044004126
S1131CA070B5054D002205492800054CA0470222C5
S1131CB004492800A04770BD28010020351B0000FE
S1131CC0070E0000E1180000F8B5CE46474680B57F
S1131CD0134C2068134B99469847134B98461B5C4A
S1131CE01F26334001252A009A40104F3A60637E34
S1131CF001221343637623685D731800C847434683
S1131D001B5C1E40B5403D60637E10221343637626
S1131D10236810225A730CBC90469946F8BDC046FD
S1131D2028010020050B0000002D000000E100E068
S1131D30034B1E221A70163A5A7017329A70704763
S1131D4050010020034BFF221A705A70E13A9A7036
S1131D507047C0465401002010B5054B9847054B09
S1131D609847054B9847054B9847054B984710BD36
S1131D70311D0000451D0000591A0000751A0000AD
S1131D80E51A000010B5044B9847044B9847044BE0
S1131D909847044B984710BDD51B00005D1C0000FC
S1131DA0591D0000A11C000010B5312800D010BD41
S1131DB00848C9430170D2434270DB438370064B29
S1131DC09847064B9847064B98470122054B1A70D3
S1131DD0EDE7C04654010020311D0000751A0000D3
S1131DE0E51A00008200002030B583B06B46991DCF
S1131DF000230B800B48012404700B4B1B681B8DC4
S1131E00DB05DB0D0B80094A1578094B5B19098842
S1131E10C9B2197013780133DBB21370047003B0C4
S1131E2030BDC046C100002058010020C000002081
S1131E30AC01002030B591B08023DB050093002372
S1131E400193FF2269460A8100228B72CB72012121
S1131E5024206C462154013021542531635401312E
S1131E6063540A9305316354013163540593238207
S1131E70E3762276227762761323A3766277E123D0
S1131E805B020893C4239B03039301235B420C93DB
S1131E900D93104B0E93104B0F93104D104C6A463C
S1131EA010492800A0470028F9D10C4D2C682000C7
S1131EB00D4B98471F2318401E3B83400B4A136069
S1131EC02A68D369002BFCD12368022213432360C0
S1131ED011B030BD020018000200190058010020A2
S1131EE0BD0E0000000C00420515000000E100E0FA
S1131EF010B5012202490348034B984710BDC04660
S1131F00E91D0000580100203D13000010B50548EC
S1131F103122835C02210B438354303A0249034B40
S1131F20984710BD580100208C0100205513000073
S1131F3010B5024B9847024B984710BD351E000060
S1131F40F11E000070B50F4D0F4C104E2B78227807
S1131F509B1A834203DA3378002BF7D070BD002834
S1131F60FCD00123084C0A4D2278D2B2AA5CCA5490
S1131F7022780132D2B222700133DBB29842F3D21A
S1131F80ECE7C046C0000020C4000020C2000020CE
S1131F90AC01002030B58DB0002301936A4B1B784F
S1131FA06A4A1278DBB2934200D1CAE0674A1378D6
S1131FB0DBB26749CB5CDBB207A90B701378013342
S1131FC0DBB213700B78DBB2472B00D181E01DD953
S1131FD04D2B64D04F2B00D09AE000235D4A137040
S1131FE05D4C237007A904205C4B98472378002B91
S1131FF000D092E007AB5878C0B29978C9B2DA78C9
S1132000D2B21B79DBB2564CA04786E0412B7FD17C
S11320100023504A1370504C237007A912204F4BD1
S113202098472378002B03D000224A4B1A7074E09F
S113203007AC2179C9B26279D2B2A379DBB231207B
S1132040474DA847637C5BB2002B1ADB07AB597C76
S1132050C9B20020434B984707AB9B7C5BB2002B73
S113206016DB07AB997CC9B200203F4B984701238C
S113207007A83E49C25CD2B2CA540133132BF9D12A
S11320804BE007AB597CC9B20120364B9847E3E7D4
S113209007AB997CC9B20120334B9847E7E700238B
S11320A02C4A13702C4C237007A904202B4B9847FF
S11320B02378002B31D107AC6078C0B2A178C9B2C3
S11320C0284B9847E078C0B22179C9B2264B98478B
S11320D023E000231F4A13701F4C237007A901201B
S11320E01E4B98472378002B17D107AB5B78342B12
S11320F013D102A9313B0B7000224A7002328A705C
S1132100CB705E330B71033219481A4B984704E0C5
S113211000230D4A13700D4A13700B4B1B780B4AA6
S11321201278DBB2934207D0074B1B78074B1B781E
S1132130094B1B78002B04D00023034A1370034A75
S113214013700DB030BDC046C0000020C400002094
S1132150AC010020C3000020C2000020451F000085
S1132160A91D000005170000D117000084000020FD
S1132170580100202D12000010B5114A13780133C4
S1132180DBB213700F4B1B6A5B060FD51378DBB2FF
S1132190FA2B05D901220C4B1A700022084B1A7035
S11321A00A480B4B98470B4B188010BD0748084B47
S11321B09847084B1B88C01A074B1860F5E7C046C0
S11321C0C300002000440041C20000209001002010
S11321D08B0D00009C0000209800002070B582B098
S11321E001AC012363700026A67023702100072030
S11321F0054DA8478022054B5A6126702100062010
S1132200A84702B070BDC0466116000000440041FA
S113221010B58EB001AA002300211370937093713E
S11322201381002050709172D172117391735173A4
S1132230117453619361117713625362138553854B
S11322409385A023DB009380074C08492000084BAA
S113225098472268D37B5BB2002BFBDB13880221F7
S11322600B4313800EB010BD90010020001C0042EF
S1132270290B000010B584B001AC2000084B98472E
S113228006230193C023DB0263600223237201331C
S1132290E37221000620034B984704B010BDC046EA
S11322A0310200004502000070B5064C8025A5618E
S11322B00A20054B9847656100210448044B984760
S11322C070BDC04600440041351600009001002056
S11322D0590D000010B5014B984710BDA92200000C
S11322E010B50C4C00220C4920000C4B9847206878
S11322F00B4B98470B4B1A5C1F2313400122110010
S11323009940094B1960637E01210B43637623686E
S11323105A7310BD90010020D5220000070E000062
S1132320050B0000042D000000E100E010B50022C0
S113233006210448044B984700210620034B984784
S113234010BDC0467921000055150000811500001C
S113235010B5024B9847024B984710BDE12200008C
S11323602D23000010B5024B9847024B984710BD2F
S1132370112200007522000010B5034B9847034B4F
S11323809847034B984710BDDD21000065230000EA
S113239051230000704700000C4B1B68002B06D132
S11323A0EFF31083002B07D00022094B1A70074A61
S11323B0136801331360704772B6BFF35F8F002256
S11323C0044B1A700132024B1A70F0E7A00000208F
S11323D0A40000200A000020084B1A68013A1A6081
S11323E01B68002B09D1064B1B78002B05D001225A
S11323F0044B1A70BFF35F8F62B67047A0000020D1
S1132400A40000200A00002010B5082803D880008A
S11324101B4B1B589F46002030E01A4B18692DE0D7
S1132420194B1B6A9B059B0F1848D84026E0154B97
S1132430586923E0134B1B6800209B071ED51249E3
S11324401022CB681A42FCD00E4B1B685B0701D4E8
S11324500F4813E000200F4B98470A4B9B681B045E
S11324601B0C58430AE05023074AD35C00205B0747
S113247004D5044BD86801E08020000210BDC0469A
S1132480082D0000A80000200008004000127A0077
S1132490006CDC026928000070B50C490B6A0478F2
S11324A0857840780122104080014026B3430343DD
S11324B02A40D20180208343134303222240120284
S11324C00348034013430B6270BDC046000800403C
S11324D0FFFCFFFF082803D88000254B1B589F46AC
S11324E0172044E0234A136A02210B43136200209D
S11324F03DE0204A936902210B439361002036E0BA
S11325001C4A138A02210B43138200202FE0194A2C
S1132510938A02210B439382002028E016490B681A
S1132520022213430B60134B9A8419000E32CB68BA
S11325301A42FCD0104A91680E4BD96252689A62D2
S113254000229A8419001032CB681A42FCD00A4B3C
S11325501B689BB2074A9384002008E00549442283
S11325608B5C022003438B54002000E00020704762
S11325702C2D000000080040A800002030B585B0D4
S1132580C222D2001A4B9A601A4A53681E218B4306
S1132590536001236A4613700024174DE0B2694664
S11325A0A8470134182CF9D103A80024447001254C
S11325B085700470114B98470620114B9847114BB6
S11325C09847114B1C725C729C72DC7201956B46CD
S11325D05C7006236A4613701472547269460020B4
S11325E00A4B984700200A4B984705B030BDC046B7
S11325F000080040004000414D28000099240000DC
S1132600D5240000152600000004004039260000EF
S1132610F1260000064A936908210B4393610122C5
S1132620044B1A7019000B781342FCD17047C04652
S113263000040040000C004070B5060004000D7852
S11326402D0205434B78002B02D08023DB021D436F
S11326504B7A002B02D080231B031D4348680128BA
S113266010D9431E184234D1022830D90223002243
S113267001325B009842FBD81202324314008023DB
S11326805B031D430B7A002B02D080239B031D4365
S1132690134A53785BB2002BFBDB124B9847124B67
S11326A01E700F4A53785BB2002BFBDB0C4B9C6013
S11326B01A0053785BB2002BFBDB094A5368802174
S11326C049020B401D435560084B984770BD0022DA
S11326D0D2E70402344380239B021D43D2E7C04661
S11326E0000C004099230000080C0040D92300008E
S11326F010B504000B4A53785BB2002BFBDB0A4B8A
S113270098470A4B1C70074A53785BB2002BFBDBDB
S1132710044A516880235B020B435360044B98477F
S113272010BDC046000C004099230000040C00407A
S1132730D923000070B504001A4A53785BB2002B09
S1132740FBDB194B9847194B1C70164A53785BB244
S1132750002BFBDB134E7068C004C00E144B98476B
S11327600500124B1C707668F602F60F114B1C70B4
S11327700C4A53785BB2002BFBDB0A4B9C682402A7
S1132780240C0D4B9847002E07D1012C07D92100AA
S113279028000A4B9847050001E00134E540280071
S11327A070BDC046000C004099230000040C00409A
S11327B009240000080C0040D9230000112B00005C
S11327C010B50400064B9847064B1C70064A538804
S11327D08021C9010B435380044B984710BDC04668
S11327E099230000020C0040000C0040D923000093
S11327F010B504000F4B98470F4B1C700F4A5388B9
S11328001B05180F53880E490B40538053880D49FC
S11328100B40538011008022D2014B881342FCD11B
S113282006494A8803020648024013434B80064B7C
S1132830984710BD99230000020C0040000C004092
S1132840FFF0FFFFFFBFFFFFD923000010B50C7896
S113285024020443024B9847A4B2024B5C8010BD8F
S1132860F1270000000C004010B50400064B984707
S1132870064B1C70064B5C882405240F054B9847B7
S11328802000054B984710BD99230000020C00401E
S1132890000C0040D92300003527000030B5D37860
S11328A0002B35D11378802B29D01B068024640299
S11328B0234354780225AC4306D19478002C20D1CC
S11328C08024A402234341605478013C012C1CD988
S11328D00D042D0CA024E4052C431C4384620D0C30
S11328E0D02424062C431C438462D478002C22D1A7
S11328F05B031CD59378012B1ED0416117E00023A4
S1132900D7E7C024E4022343DDE70D4C2340DFE78F
S113291041600C04240CA023DB05234383620C0CCC
S1132920D0231B0623438362D378002B03D153782F
S1132930013B012B02D930BD8161F8E78160FAE7E0
S1132940FFFFFBFF10B50A00C1090023002904D1D1
S11329504309DB0105498C4663441F2420400121BF
S113296081401800024B984710BDC0460044004106
S11329709D280000F0B5C64600B50023012640247A
S1132980A046A44609E0C51840352C7867463C4368
S1132990E4B22C700133202B0CD00C00DC40264216
S11329A0F8D0012AEFD0C418403425784746BD43F7
S11329B02570EFE704BC9046F0BD704710B5054B99
S11329C09847054B9847054B9847054B9847054B47
S11329D0984710BD7D25000095230000BB29000009
S11329E0C5010000BB290000FEE7000010B5264A1F
S11329F0264B9A4211D01A00254B9A420DD2254AF1
S1132A0003339B1A9B0801339B0000221F481E4975
S1132A108C58845004329A42FAD11F4A1F4B9A426E
S1132A200AD2D3431D495B1803218B4304339B18FB
S1132A30002102C29342FCD1194AFF21194B8B4356
S1132A409360FD3990235B00174AD150174B9A7B52
S1132A502E318A4320210A439A739A7B0C218A439C
S1132A6008210A439A739A7B03218A4302210A4369
S1132A709A730F4A536880210B4353600D4B984758
S1132A800D4B9847FEE7C046702D00000000002063
S1132A900C000020040000200C000020AC020020E8
S1132AA000ED00E00000000000700041004800411B
S1132AB0004000417D2C0000BD2A000010B50A4BE7
S1132AC098470A4B98470A4B98470A4B98470A4B32
S1132AD098470A4B98470A4B98470A4B98470A4B22
S1132AE098470A4CA047FDE7BD290000C91800001B
S1132AF0F5150000851D00009D18000079230000D5
S1132B00311F00000D1F0000C91C0000951F0000AC
S1132B10002243088B4274D303098B425FD3030A18
S1132B208B4244D3030B8B4228D3030C8B420DD32B
S1132B30FF22090212BA030C8B4202D312120902B9
S1132B4065D0030B8B4219D300E0090AC30B8B42F7
S1132B5001D3CB03C01A5241830B8B4201D38B03A5
S1132B60C01A5241430B8B4201D34B03C01A52414A
S1132B70030B8B4201D30B03C01A5241C30A8B428D
S1132B8001D3CB02C01A5241830A8B4201D38B0278
S1132B90C01A5241430A8B4201D34B02C01A52411C
S1132BA0030A8B4201D30B02C01A5241CDD2C3098E
S1132BB08B4201D3CB01C01A524183098B4201D30A
S1132BC08B01C01A524143098B4201D34B01C01AF5
S1132BD0524103098B4201D30B01C01A5241C3086D
S1132BE08B4201D3CB00C01A524183088B4201D3DC
S1132BF08B00C01A524143088B4201D34B00C01AC8
S1132C005241411A00D20146524110467047FFE733
S1132C1001B5002000F006F802BDC0460029F7D037
S1132C2076E770477047C046F0B5CE464746150470
S1132C302D0C2E0080B50704140C3F0C9946030C90
S1132C407E435D43674363437F19340CE4199C4618
S1132C50A54203D980235B029846C4444B465143A2
S1132C6043433604360C250C24046544A41959182E
S1132C70491920000CBC90469946F0BD70B5002659
S1132C800C4D0D4C641BA410A64209D1002600F083
S1132C905FF80A4D0A4C641BA410A64205D170BD0E
S1132CA0B300EB5898470136EEE7B300EB5898476A
S1132CB00136F2E75C2D00005C2D00005C2D000065
S1132CC0602D000000080042000C00420010004289
S1132CD001000000020000000400000008000000E1
S1132CE000100000002000000040000000800000F0
S1132CF000000100000002000000040000000800C1
S1132D000D0E00000D0E00001A2400001624000011
S1132D101624000078240000782400002E240000EB
S1132D202024000034240000662400000025000054
S1132D30E0240000E02400006C250000F2240000E0
S1132D400E250000E42400001C2500005C25000082
S1132D50F8B5C046F8BC08BC9E467047B5000000F4
S1132D60F8B5C046F8BC08BC9E4670478D0000000C
S10F2D70401F00000800000003010100E7
S90329EDE6
